:100000000C9434000C9451000C9451000C94670033
:100010000C945D000C9453000C9451000C94A306B6
:100020000C9451000C9451000C9451000C9451000C
:100030000C9451000C9451000C9451000C945100FC
:100040000C9451000C9451000C9495020C945100A6
:100050000C9451000C9451000C9451000C945100DC
:100060000C9451000C94510011241FBECFEFD8E026
:10007000DEBFCDBF11E0A0E0B1E0E8ECF6E102C0E8
:1000800005900D92AE32B107D9F714E0AEE2B1E0BF
:1000900001C01D92A834B107E1F70E9423070C9418
:1000A000620B0C9400001F920F920FB60F92112456
:1000B0000F900FBE0F901F9018951F920F920FB6C2
:1000C0000F9211240F900FBE0F901F9018951F9242
:1000D0000F920FB60F9211248F9318990BC05A9854
:1000E0008091C10080688093C10010922F01429AD4
:1000F0001092C6008F910F900FBE0F901F90189511
:1001000020E23EE404C0F9013197F1F7019700972E
:10011000D1F708959C015A9880E48093C0008091A3
:10012000C00085FFFCCFC9019695982F8827979529
:1001300087959093C6005C9820FF02C0599A01C031
:1001400059988091C00086FFFCCF1092C100109298
:10015000C2005C9A5C9880EC8093C20088E0809337
:10016000C1005A9A0895BC015A9840E051E020E03D
:1001700030E0CA0186239723892B11F0599A01C0D8
:1001800059985C9A569547955C982F5F3F4F293058
:10019000310579F75A9A08955F9A80ED97E0FC014E
:1001A0003197F1F75F980197F1F75F9A80EB96E34B
:1001B0000197F1F708955A9880EB96E30197F1F7CC
:1001C00008955A9A88EE93E028EC30E0F9013197CF
:1001D000F1F70197D9F708955A98089585E08A951F
:1001E000F1F75A9A08955098589AD89AEBE6F0E0A9
:1001F00080818E7F80830895D89AE8E6F0E0808140
:1002000081608083EBE6F0E08081816080830895E7
:10021000D89AEBE6F0E080818E7F808308958AB1E2
:10022000866D8AB95A9A5F9A59985C985E98289A0E
:10023000089583E090E09093C5008093C40082EC21
:100240008093C20088E18093C10008955A988093FA
:10025000C6008091C00087FFFCCF8091C60085E07A
:100260008A95F1F75A9A08950E940F0183E090E071
:100270009093C5008093C40082EC8093C20088E113
:100280008093C100089582E00E942601089584E0D1
:100290000E942601089586E00E942601089588E0C4
:1002A0000E94260185E08A95F1F75A9A08950895EB
:1002B00088E00E94260108958AE00E9426010895A0
:1002C0005E98089581E10E942601089580E10E94D0
:1002D0002601089588E00E94260108950E94CC001E
:1002E0005A9880EB96E30197F1F70E94E100089598
:1002F0000E94660108958730D1F0883038F482304A
:1003000081F0833089F08130E1F409C0893099F0BF
:10031000893078F08A3089F08B3099F411C0677891
:1003200010C06B7F60680DC06D7F60610AC06F7325
:1003300008C06F7506C0626004C06778616001C064
:100340006F7080648093040210920502609306022D
:100350005A988093C6008091C00087FFFCCF80919F
:10036000C600809105028093C6008091C00087FF7F
:10037000FCCF8091C6006093C6008091C00087FFCB
:10038000FCCF8091C6000895806280930402109291
:1003900005025A988093C6008091C00087FFFCCF69
:1003A0001092C6008091C00087FFFCCF8091C600EC
:1003B0001092C6008091C00087FFFCCF8091C600DC
:1003C00095E09A95F1F75A9A9AE09A95F1F708957F
:1003D0001F931091290110688AE0612F0E947B0110
:1003E0008AE10E94260180E29EE40197F1F71F77DF
:1003F0008AE0612F0E947B011F9108951F93CF9384
:10040000DF935A9885E08A95F1F75A9AC0E2D1E0D5
:1004100011E0812F69910E947B011F5F1C30C9F799
:10042000DF91CF911F9108951F93CF93DF93EC013C
:1004300010E0812F0E94C40189931F5F1C30C9F70F
:10044000DF91CF911F9108950F931F930E94340164
:1004500080E991E028EC30E0F9013197F1F701975C
:10046000D9F70E94CC000E949D0700EA1FE0C80156
:100470000197F1F70E9443010E946A010E945C010A
:10048000C8010197F1F70E946201C8010197F1F7D5
:100490000E94FE010E94660189E0809330015A9A11
:1004A0000E9458010E94FC0078940FEF8091320165
:1004B0008823E1F310923201809138019091390143
:1004C0000E94D20680913A0190913B010E94FA0667
:1004D000209133018091340190E08078907030E079
:1004E00021703070820F931F892B41F0809136016B
:1004F00085FF02C007BD07C017BC05C08091380149
:100500009091390187BD80913301867041F08091CF
:10051000360185FF02C008BDC9CF18BCC7CF809186
:100520003A0190913B0188BDC1CF1F920F920FB647
:100530000F921124AF92BF92CF92DF92EF92FF926F
:100540000F931F932F933F934F935F936F937F93DB
:100550008F939F93AF93BF93CF93DF93EF93FF93CB
:10056000E0912F01F0E08091C600E850FE4F8083BB
:1005700080912F018F5F80932F0190912F018091A7
:100580003001981709F0C2C38091C1008F77809322
:10059000C1005A9A8091F801809333018091F9014A
:1005A000809334018091FA01809335018091360166
:1005B0008F5F80933601809137018F5F8093370181
:1005C0008091FB012091FC01E090FD0190E0A0E012
:1005D000B0E0DC019927882730E040E050E0542F5C
:1005E000432F322F2227822B932BA42BB52BFF24B2
:1005F00000E010E08E299F29A02BB12B809374017D
:1006000090937501A0937601B09377018091FB01DF
:1006100087FF0AC08091740190917501A0917601C5
:10062000B0917701BF6F08C08091740190917501FE
:10063000A0917601B091770180935C0190935D0168
:10064000A0935E01B0935F0180915C0190915D0188
:10065000A0915E01B0915F01809368019093690160
:10066000A0936A01B0936B0180915C0190915D0150
:10067000A0915E01B0915F0120916C0130916D01FC
:1006800040916E0150916F01821B930BA40BB50B2F
:1006900080935C0190935D01A0935E01B0935F0134
:1006A0008091680190916901A0916A01B0916B01FC
:1006B00080936C0190936D01A0936E01B0936F01D4
:1006C00020915C0130915D0140915E0150915F018C
:1006D00080913C0190913D01A0913E01B0913F017C
:1006E000820F931FA41FB51F80936401909365012F
:1006F000A0936601B093670160915C0170915D0108
:1007000080915E0190915F012AEC31E040E050E081
:100710000E941B08609360017093610180936201E5
:100720009093630160916001709161018091620119
:1007300090916301A0905C01B0905D01C0905E015A
:10074000D0905F01E0904001F090410100914201A2
:100750001091430128E13CEF4FEF5FEF0E943A0810
:100760002A193B094C095D09E20EF31E041F151FEF
:10077000E0923C01F0923D0100933E0110933F0155
:1007800080915C0190915D01A0915E01B0915F014B
:100790008093400190934101A0934201B0934301A3
:1007A000609186017091870120916401309165010B
:1007B0004091660150916701FB01EE0FFF1FEE0FA4
:1007C000FF1FE25FFD4F208331834283538357FF36
:1007D0000BC088279927DC01821B930BA40BB50B58
:1007E00080839183A283B383CB0101969093870189
:1007F000809386018034910524F010928701109235
:10080000860110925C0110925D0110925E011092BF
:100810005F01EEE0F2E080915C0190915D01A091BA
:100820005E01B0915F012191319141915191820F0F
:10083000931FA41FB51F80935C0190935D01A0934B
:100840005E01B0935F0183E0EE30F80721F760911D
:100850005C0170915D0180915E0190915F0120E0EB
:1008600031E040E050E00E943A0830933901209393
:100870003801809138019091390196958795909330
:1008800039018093380180913801909139018F3F6F
:10089000910539F030F08FEF90E09093390180931B
:1008A00038018091FE012091FF01E090000290E06C
:1008B000A0E0B0E0DC019927882730E040E050E07C
:1008C000542F432F322F2227822B932BA42BB52B6F
:1008D000FF2400E010E08E299F29A02BB12B8093EC
:1008E000740190937501A0937601B0937701809184
:1008F000FE0187FF0AC08091740190917501A0915B
:100900007601B0917701BF6F08C08091740190911A
:100910007501A0917601B091770180935C0190936D
:100920005D01A0935E01B0935F0180915C019091A5
:100930005D01A0915E01B0915F0180936801909389
:100940006901A0936A01B0936B0180915C01909161
:100950005D01A0915E01B0915F0120917001309125
:1009600071014091720150917301821B930BA40B92
:10097000B50B80935C0190935D01A0935E01B093F1
:100980005F018091680190916901A0916A01B09125
:100990006B018093700190937101A0937201B093E9
:1009A000730120915C0130915D0140915E01509195
:1009B0005F0180914C0190914D01A0914E01B09149
:1009C0004F01820F931FA41FB51F80936401909362
:1009D0006501A0936601B093670160915C0170911D
:1009E0005D0180915E0190915F012AEC31E040E071
:1009F00050E00E941B086093600170936101809336
:100A00006201909363016091600170916101809136
:100A1000620190916301A0905C01B0905D01C09073
:100A20005E01D0905F01E0905001F0905101009183
:100A300052011091530128E13CEF4FEF5FEF0E940C
:100A40003A082A193B094C095D09E20EF31E041FFE
:100A5000151FE0924C01F0924D0100934E0110934E
:100A60004F0180915C0190915D01A0915E01B09178
:100A70005F018093500190935101A0935201B09374
:100A80005301609188017091890120916401309136
:100A900065014091660150916701FB01EE0FFF1F58
:100AA000EE0FFF1FEA5CFC4F2083318342835383A8
:100AB00057FF0BC088279927DC01821B930BA40BDF
:100AC000B50B80839183A283B383CB01019690936E
:100AD0008901809388018034910524F01092890166
:100AE0001092880110925C0110925D0110925E01DB
:100AF00010925F01E6E3F3E080915C0190915D016B
:100B0000A0915E01B0915F0121913191419151918C
:100B1000820F931FA41FB51F80935C0190935D010A
:100B2000A0935E01B0935F0194E0E633F90721F7EB
:100B300060915C0170915D0180915E0190915F0117
:100B400020E031E040E050E00E943A0830933B0161
:100B500020933A0180913A0190913B0196958795B7
:100B600090933B0180933A0180913A0190913B012F
:100B70008F3F910539F030F08FEF90E090933B017B
:100B800080933A0181E080933201809131018F5F3F
:100B900080933101809131018A3011F4109231013A
:100BA000809131018130A9F52091380130913901CE
:100BB00040913A0150913B01ADB7BEB718970FB6BF
:100BC000F894BEBF0FBEADBFEDB7FEB7319608EBD0
:100BD00011E012961C930E93119780E091E093839D
:100BE000828335832483578346830E947708E801F4
:100BF0008DB79EB708960FB6F8949EBF0FBE8DBFF7
:100C000002C00E94830789918823D9F78DE00E9452
:100C1000830780913101833009F07AC0209133013C
:100C20008091340190E08078907030E021703070D5
:100C3000820F931F892B61F0E6E3F4E089E11082D3
:100C400081831282339694E0E534F907C1F75BC0E3
:100C5000E7E3F4E0108211823396A4E0E634FA0769
:100C6000C9F78091380190913901C39738F080918C
:100C7000380190913901893C9105F8F08091380153
:100C80009091390180933604809138019091390117
:100C900080933904809138019091390180933C040C
:100CA000809138019091390180933F0480913801FF
:100CB000909139018093420426C08091380190912F
:100CC00039018739910598F0809138019091390167
:100CD00080933904809138019091390180933C04CC
:100CE000809138019091390180933F040CC080912C
:100CF00038019091390180933904809138019091A5
:100D0000390180933C040E94A00702C01092C600E3
:100D1000FF91EF91DF91CF91BF91AF919F918F9113
:100D20007F916F915F914F913F912F911F910F9103
:100D3000FF90EF90DF90CF90BF90AF900F900FBEDD
:100D40000F901F9018951F920F920FB60F921124BB
:100D50008F939F93AF93BF9380918A0190918B0162
:100D6000A0918C01B0918D010196A11DB11D8093C0
:100D70008A0190938B01A0938C01B0938D01BF9158
:100D8000AF919F918F910F900FBE0F901F9018956C
:100D900020ED37E004C0F9013197F1F70197009792
:100DA000D1F708959C01009759F4809180008F77C6
:100DB00080938000299810928900109288000895ED
:100DC0008F3F910568F0809180008F77809380003D
:100DD000299A8FEF90E0909389008093880008957E
:100DE00080918000806880938000309389002093F8
:100DF000880008959C01009759F4809180008F7DB0
:100E0000809380002A9810928B0010928A00089597
:100E10008F3F910568F0809180008F7D80938000E6
:100E20002A9A8FEF90E090938B0080938A00089528
:100E30008091800080628093800030938B002093AB
:100E40008A000895089510928A0110928B011092E1
:100E50008C0110928D013A9A42988AB180668AB9C3
:100E600083EA84BD81E085BD17BC18BC0E94800761
:100E70008FEF87BD88BD429A80E69AEE0197F1F721
:100E8000429882EA8093800089E1809381008FEF0D
:100E900090E09093870080938600109285001092D6
:100EA000840084B1866084B98DE78093B30083E0C9
:100EB0008093B00084E08093B10082E08093700062
:100EC00084EF91E00E94D2068CEB92E00E94FA0639
:100ED0000E949D070E942402FFCFF999FECF80E077
:100EE00090E06BE070E00E94780AF999FECF82E012
:100EF00090E066E170E00E94780AF999FECF0895CB
:100F00005B9A539A089590E09160880F991F30E0A2
:100F100042E180FF02C05B9A01C05B98242F2A95B2
:100F2000F1F72BB12BB12BB12BB12BB13F5F3A3085
:100F300019F095958795EDCF089545983D9A0895B8
:100F4000DF93CF93CDB7DEB727970FB6F894DEBF08
:100F50000FBECDBF8FE090E09F838E8380913604DB
:100F600089831D8288B18A838A818F7D8B838A8160
:100F700080628A838B818C83898187FF02C08A810A
:100F80008C836A815B8129813C814D818E819F8127
:100F9000E7E3F4E068B9452F38B900C026FD462FD5
:100FA00058B900C068B9352F48B900C025FD362FA3
:100FB00058B900C068B9452F38B900C024FD462F84
:100FC00058B900C068B9352F48B900C023FD362F85
:100FD00058B900C068B9452F38B900C022FD462F66
:100FE00058B900C068B9352F48B900C021FD362F67
:100FF00058B900C068B9452F38B900C020FD462F48
:1010000058B9019768B9352F48B9219127FD362F76
:1010100058B901F629833C834D839F838E8385E8ED
:101020008A95F1F727960FB6F894DEBF0FBECDBFB5
:10103000CF91DF910895629FD001739FF001829F4D
:10104000E00DF11D649FE00DF11D929FF00D839F57
:10105000F00D749FF00D659FF00D9927729FB00DF4
:10106000E11DF91F639FB00DE11DF91FBD01CF0107
:101070001124089597FB092E05260ED057FD04D0A4
:1010800014D00AD0001C38F4509540953095219525
:101090003F4F4F4F5F4F0895F6F7909580957095AD
:1010A00061957F4F8F4F9F4F0895A1E21A2EAA1B83
:1010B000BB1BFD010DC0AA1FBB1FEE1FFF1FA21708
:1010C000B307E407F50720F0A21BB30BE40BF50B05
:1010D000661F771F881F991F1A9469F7609570958E
:1010E000809590959B01AC01BD01CF010895AEE0C4
:1010F000B0E0EDE7F8E00C94390B0D891E8986E02D
:101100008C831A8309838FEF9FE79E838D839E01D3
:10111000275E3F4FCE0101966F89788DA9010E940D
:101120009B082F813885020F131FF80110822E961D
:10113000E4E00C94550BABE0B0E0E1EAF8E00C948D
:101140002B0B3C012B015A01FC0117821682838173
:1011500081FD03C06FEF7FEFC6C19AE0892E1E01AB
:101160000894211C311CF3012381F20123FD859198
:1011700023FF81912F01882309F4B2C1853239F40C
:1011800023FD859123FF81912F01853229F490E081
:10119000B3010E94930AE7CF982FFF24EE249924ED
:1011A000FFE1FF15D0F09B3269F09C3228F49032B9
:1011B00059F0933291F40EC09D3249F0903369F4A6
:1011C00041E024C052E0F52A84E0F82A28C098E0E3
:1011D000F92A25C0E0E1FE2A22C0F7FC29C0892FA8
:1011E00080538A3070F4F6FE05C0989C902C112430
:1011F000980E15C0E89CE02C1124E80EF0E2FF2ABE
:101200000EC09E3229F4F6FC6BC140E4F42A07C0FC
:101210009C3619F450E8F52A02C0983649F4F201D8
:1012200023FD959123FF91912F01992309F0B8CFC8
:10123000892F8554833018F08052833038F444E08D
:1012400050E0A40EB51E5FE359830FC0933631F012
:10125000933779F0933509F056C020C0F5018081AD
:10126000898342E050E0A40EB51E610101E010E068
:1012700012C0F501C080D180F6FC03C06FEF7FEF94
:1012800002C0692D70E042E050E0A40EB51EC60118
:101290000E94880A8C015FE7F52214C0F501C08026
:1012A000D180F6FC03C06FEF7FEF02C0692D70E0C4
:1012B00042E050E0A40EB51EC6010E947D0A8C01DA
:1012C00050E8F52AF3FE07C01AC080E290E0B301AF
:1012D0000E94930AEA948E2D90E008171907A8F34C
:1012E0000EC0F601F7FC8591F7FE81916F0190E049
:1012F000B3010E94930AE110EA94015010400115D5
:10130000110579F7EAC0943611F0993669F5F7FEC0
:1013100008C0F501208131814281538184E090E051
:101320000AC0F501808191819C01442737FD4095D9
:10133000542F82E090E0A80EB91E9FE6F92257FFD5
:1013400009C050954095309521953F4F4F4F5F4FC5
:10135000E0E8FE2ACA01B901A1012AE030E00E94BA
:10136000BF0AD82ED21840C0953729F41F2D1F7EF2
:101370002AE030E01DC01F2D197F9F3661F09037A5
:1013800020F4983509F0ACC00FC0903739F0983789
:1013900009F0A6C004C028E030E00AC0106114FDC6
:1013A000146020E130E004C014FD166020E132E05A
:1013B00017FF08C0F501608171818281938144E04B
:1013C00050E008C0F50180819181BC0180E090E08F
:1013D00042E050E0A40EB51EA1010E94BF0AD82E23
:1013E000D2188FE7F82EF122F6FE0BC05EEFF52241
:1013F000D91438F4F4FE07C0F2FC05C08FEEF822D1
:1014000002C01D2D01C0192DF4FE0DC0FE01ED0D11
:10141000F11D8081803319F499EEF92208C01F5F15
:10142000F2FE05C003C08F2D867809F01F5F0F2DD7
:10143000F3FC14C0F0FE0FC01E1510F09D2C0BC065
:101440009D2C9E0C911A1E2D06C080E290E0B301E7
:101450000E94930A1F5F1E15C0F304C01E1510F4EE
:10146000E11A01C0EE2404FF0FC080E390E0B30155
:101470000E94930A02FF1DC001FD03C088E790E0AF
:101480000EC088E590E00BC0802F867891F001FFB8
:1014900002C08BE201C080E2F7FC8DE290E0B30174
:1014A0000E94930A06C080E390E0B3010E94930A71
:1014B0009A94D914C0F3DA94F101ED0DF11D8081F5
:1014C00090E0B3010E94930ADD20A9F706C080E2F4
:1014D00090E0B3010E94930AEA94EE20C1F743CE54
:1014E000F30166817781CB012B96E2E10C94470BE7
:1014F0000E941D0B272F0C941E0BFC0105906150C0
:1015000070400110D8F7809590958E0F9F1F089519
:10151000FC016150704001900110D8F780959095C2
:101520008E0F9F1F08950F931F93CF93DF938C010E
:10153000EB018B8181FF1BC082FF0DC02E813F819B
:101540008C819D812817390764F4E881F981019322
:10155000F983E88306C0E885F985802F0995892BF2
:1015600031F48E819F8101969F838E8302C00FEF9D
:101570001FEFC801DF91CF911F910F910895FA01DC
:10158000AA27283051F1203181F1E8946F936E7FC2
:101590006E5F7F4F8F4F9F4FAF4FB1E03ED0B4E0B3
:1015A0003CD0670F781F891F9A1FA11D680F791FF4
:1015B0008A1F911DA11D6A0F711D811D911DA11D05
:1015C00020D009F468943F912AE0269F1124301915
:1015D000305D3193DEF6CF010895462F4770405DB0
:1015E0004193B3E00FD0C9F7F6CF462F4F70405D5F
:1015F0004A3318F0495D31FD4052419302D0A9F7BA
:10160000EACFB4E0A6959795879577956795BA95B3
:10161000C9F700976105710508959B01AC010A2E79
:1016200006945795479537952795BA95C9F7620F50
:10163000731F841F951FA01D0895262FF999FECFB3
:101640001FBA92BD81BD20BD0FB6F894FA9AF99ADF
:101650000FBE019608952F923F924F925F926F9224
:101660007F928F929F92AF92BF92CF92DF92EF9232
:10167000FF920F931F93CF93DF93CDB7DEB7CA1BB3
:10168000DB0B0FB6F894DEBF0FBECDBF09942A88DE
:10169000398848885F846E847D848C849B84AA8486
:1016A000B984C884DF80EE80FD800C811B81AA8113
:1016B000B981CE0FD11D0FB6F894DEBF0FBECDBFDE
:0816C000ED010895F894FFCF3D
:1016C80053253033642C2530336400C800000000F3
:1016D80002E0F000002C0F00EA030C0000000000FC
:0E16E80002E8501010200F0002030C0000005A
:00000001FF
